:020000040800F2
:1000000008040020450100084D0100084F010008C8
:1000100051010008530100085501000800000000CC
:100020000000000000000000000000005701000870
:1000300059010008000000005B0100085D01000894
:100040005F0100085F0100085F0100085F01000810
:100050005F0100085F0100085F0100085F01000800
:100060005F0100085F0100085F0100085F010008F0
:100070005F0100085F0100085F0100085F010008E0
:100080005F0100085F0100085F0100085F010008D0
:100090005F0100085F0100085F0100085F010008C0
:1000A0005F0100085F0100085F0100085F010008B0
:1000B0005F0100085F0100085F0100085F010008A0
:1000C0005F0100085F0100085F0100085F01000890
:1000D0005F010008DD0400085F0100085F010008FF
:1000E0005F0100085F0100085F0100085F01000870
:1000F0005F0100085F0100085F0100085F01000860
:100100005F0100085F0100085F0100085F0100084F
:100110005F0100085F0100085F0100085F0100083F
:100120005F0100085F0100085F0100085F0100082F
:10013000DFF80CD000F018F800480047DD05000893
:10014000080400200648804706480047FEE7FEE70F
:10015000FEE7FEE7FEE7FEE7FEE7FEE7FEE7FEE777
:100160007D04000831010008064C074D06E0E068F8
:1001700040F0010394E8070098471034AC42F6D3EE
:10018000FFF7DAFF28070008480700082DE9F041CB
:10019000024600250026002000230024002791F8B5
:1001A00003C00CF00F0591F803C00CF0100CBCF16B
:1001B000000F03D091F802C04CEA050591F800C089
:1001C000BCF1000F31D0146800202BE04FF0010C7F
:1001D0000CFA00F3B1F800C00CEA03069E4220D1ED
:1001E00083004FF00F0C0CFA03F7BC4305FA03FC35
:1001F0004CEA040491F803C0BCF1280F06D14FF07B
:10020000010C0CFA00FCC2F814C00AE091F803C01B
:10021000BCF1480F05D14FF0010C0CFA00FCC2F8FC
:1002200010C0401C0828D1D31460B1F800C0BCF144
:10023000FF0F34DD546800202EE000F1080C4FF071
:10024000010808FA0CF3B1F800C00CEA03069E425C
:1002500021D183004FF00F0C0CFA03F7BC4305FAD1
:1002600003FC4CEA040491F803C0BCF1280F05D14B
:1002700000F1080C08FA0CF8C2F8148091F803C0D9
:10028000BCF1480F07D100F1080C4FF0010808FA43
:100290000CF8C2F81080401C0828CED35460BDE88A
:1002A000F08141617047000008B50121082000F08D
:1002B0002FF840F22340ADF8000003208DF8020033
:1002C00010208DF8030069460F48FFF75FFF40F2EA
:1002D00023410D48FFF7E5FF0121102000F018F839
:1002E0004FF40050ADF8000003208DF802001020FC
:1002F0008DF8030069460548FFF748FF4FF40051A9
:100300000248FFF7CEFF08BD000C0140001001407D
:1003100029B1064A92690243044B9A6104E0034AF8
:1003200092698243014B9A617047000000100240BD
:1003300010B500F001F810BD0CB500200190009040
:100340003348006840F480303149086000BF3048CD
:10035000006800F4003000900198401C0190009863
:1003600018B90198B0F5A06FF1D12948006800F4E0
:10037000003010B10120009001E0002000900098B2
:10038000012843D12348006840F01000214908604B
:100390000846006820F0030008600846006840F046
:1003A000020008601A4840681949486008464068D9
:1003B00048600846406840F48060486008464068ED
:1003C00020F47C1048600846406840F4E81048601B
:1003D0000846006840F08070086000BF0C48006864
:1003E00000F000700028F9D00948406820F00300B0
:1003F000074948600846406840F00200486000BF76
:100400000348406800F00C000828F9D10CBD00003A
:100410000010024000200240042808D14FF0E021E3
:10042000096941F004014FF0E022116107E04FF04B
:10043000E021096921F004014FF0E02211617047C9
:1004400010B504466FF00400FFF7E6FFE11704EB78
:100450005171C1F3C701074A11701046007800EBD3
:100460004001C1EBC0104FF6FF7101EAC000024924
:10047000088010BD000000200200002010B51348C5
:10048000006840F0010011490860084640681049C2
:1004900008400E494860084600680E4908400B496C
:1004A00008600846006820F480200860084640681C
:1004B00020F4FE0048604FF41F008860FFF738FF0B
:1004C0004FF000600449086010BD000000100240B9
:1004D0000000FFF8FFFFF6FE08ED00E010B540F267
:1004E0002551064800F015F818B1044800F03BF813
:1004F000C4B24021014800F003F810BD00380140AB
:1005000001F40072B2F5007F00D100BFCA4302803F
:10051000704770B50246002400230025002040F6F5
:100520006A16B14200D100BFC1F3421501F01F03AA
:10053000012606FA03F3012D02D19689334006E025
:10054000022D02D1168A334001E0968A33400C1204
:10055000012606FA04F41688344013B10CB10120C8
:1005600000E0002070BD01468888C0F30800704795
:1005700002E008C8121F08C1002AFAD1704770476C
:10058000002001E001C1121F002AFBD170470000CA
:100590000146114A12884A434FF0E0235A61002273
:1005A0009A611A46126942F001021A6100BF4FF0C7
:1005B000E022106900F001021AB100F48032002A32
:1005C000F5D04FF0E022126922F001024FF0E02353
:1005D0001A6100229A617047020000200A24482014
:1005E000FFF72EFFFFF760FE00204B490860C82090
:1005F000FFF7CEFF01204949C1F8B401C820FFF739
:10060000C7FF0020444908604FF41670FFF7C0FF91
:1006100081E041480068C0434049C1F8B40101206D
:100620003F4908600020091D08603D4914310860F9
:100630003C49C1F8A801A0B2FFF7AAFF0120384940
:100640000860091D086000203549143108603449EC
:1006500028310860A0B2FFF79BFF002030490860F6
:100660000120091D086000202D49143108602C4923
:1006700028310860A0B2FFF78BFF002028490860EE
:100680000120091D08602649143108600020244912
:1006900028310860A0B2FFF77BFF002020490860E6
:1006A000091D086001201E491431086000201C4902
:1006B00028310860A0B2FFF76BFF002018490860DE
:1006C000091D0860012016491431086014492831B9
:1006D0000860A0B2FFF75CFF002011490860091D07
:1006E00008600F491431086001200D492831086065
:1006F000A0B2FFF74DFF0120094908600020091D45
:10070000086007491431086001200649C1F8A801B2
:10071000A0B2FFF73DFF7CE7B40122420000224275
:10072000808121420080214248070008000000200B
:1007300004000000700500084C07000804000020B9
:0C07400004040000800500080000000018
:0400000508000131BD
:00000001FF
